{
  "contractName": "Voting",
  "abi": [
    {
      "anonymous": false,
      "inputs": [
        {
          "indexed": false,
          "internalType": "uint256",
          "name": "candidateId",
          "type": "uint256"
        },
        {
          "indexed": false,
          "internalType": "string",
          "name": "name",
          "type": "string"
        },
        {
          "indexed": false,
          "internalType": "string",
          "name": "proposal",
          "type": "string"
        }
      ],
      "name": "AddedCandidate",
      "type": "event"
    },
    {
      "anonymous": false,
      "inputs": [
        {
          "indexed": false,
          "internalType": "uint256",
          "name": "candidateId",
          "type": "uint256"
        }
      ],
      "name": "NewVote",
      "type": "event"
    },
    {
      "constant": true,
      "inputs": [
        {
          "internalType": "uint256",
          "name": "",
          "type": "uint256"
        }
      ],
      "name": "candidatesStore",
      "outputs": [
        {
          "internalType": "string",
          "name": "name",
          "type": "string"
        },
        {
          "internalType": "string",
          "name": "proposal",
          "type": "string"
        },
        {
          "internalType": "bool",
          "name": "doesExist",
          "type": "bool"
        }
      ],
      "payable": false,
      "stateMutability": "view",
      "type": "function"
    },
    {
      "constant": true,
      "inputs": [],
      "name": "owner",
      "outputs": [
        {
          "internalType": "address",
          "name": "",
          "type": "address"
        }
      ],
      "payable": false,
      "stateMutability": "view",
      "type": "function"
    },
    {
      "constant": true,
      "inputs": [
        {
          "internalType": "uint256",
          "name": "",
          "type": "uint256"
        }
      ],
      "name": "votersStore",
      "outputs": [
        {
          "internalType": "address",
          "name": "voterAddress",
          "type": "address"
        },
        {
          "internalType": "uint256",
          "name": "voterId",
          "type": "uint256"
        },
        {
          "internalType": "uint256",
          "name": "candidateIdVote",
          "type": "uint256"
        }
      ],
      "payable": false,
      "stateMutability": "view",
      "type": "function"
    },
    {
      "constant": false,
      "inputs": [],
      "name": "vote",
      "outputs": [],
      "payable": false,
      "stateMutability": "nonpayable",
      "type": "function"
    },
    {
      "constant": true,
      "inputs": [],
      "name": "isOwner",
      "outputs": [
        {
          "internalType": "bool",
          "name": "",
          "type": "bool"
        }
      ],
      "payable": false,
      "stateMutability": "view",
      "type": "function"
    },
    {
      "constant": false,
      "inputs": [
        {
          "internalType": "string",
          "name": "name",
          "type": "string"
        },
        {
          "internalType": "string",
          "name": "proposal",
          "type": "string"
        }
      ],
      "name": "addCandidate",
      "outputs": [
        {
          "internalType": "uint256",
          "name": "candidateId",
          "type": "uint256"
        }
      ],
      "payable": false,
      "stateMutability": "nonpayable",
      "type": "function"
    },
    {
      "constant": false,
      "inputs": [
        {
          "internalType": "address",
          "name": "voterAddress",
          "type": "address"
        },
        {
          "internalType": "uint256",
          "name": "candidateIdVote",
          "type": "uint256"
        },
        {
          "internalType": "uint256",
          "name": "voterId",
          "type": "uint256"
        }
      ],
      "name": "addVote",
      "outputs": [],
      "payable": false,
      "stateMutability": "nonpayable",
      "type": "function"
    },
    {
      "constant": true,
      "inputs": [
        {
          "internalType": "uint256",
          "name": "candidateId",
          "type": "uint256"
        }
      ],
      "name": "totalVotes",
      "outputs": [
        {
          "internalType": "uint256",
          "name": "",
          "type": "uint256"
        }
      ],
      "payable": false,
      "stateMutability": "view",
      "type": "function"
    },
    {
      "constant": true,
      "inputs": [],
      "name": "getNumOfCandidates",
      "outputs": [
        {
          "internalType": "uint256",
          "name": "",
          "type": "uint256"
        }
      ],
      "payable": false,
      "stateMutability": "view",
      "type": "function"
    },
    {
      "constant": true,
      "inputs": [],
      "name": "getTotalVoters",
      "outputs": [
        {
          "internalType": "uint256",
          "name": "",
          "type": "uint256"
        }
      ],
      "payable": false,
      "stateMutability": "view",
      "type": "function"
    },
    {
      "constant": true,
      "inputs": [
        {
          "internalType": "uint256",
          "name": "candidateId",
          "type": "uint256"
        }
      ],
      "name": "getCandidate",
      "outputs": [
        {
          "internalType": "uint256",
          "name": "",
          "type": "uint256"
        },
        {
          "internalType": "string",
          "name": "",
          "type": "string"
        },
        {
          "internalType": "string",
          "name": "",
          "type": "string"
        }
      ],
      "payable": false,
      "stateMutability": "view",
      "type": "function"
    }
  ],
  "bytecode": "0x608060405234801561001057600080fd5b50610db0806100206000396000f3fe608060405234801561001057600080fd5b50600436106100a95760003560e01c8063632a9a5211610071578063632a9a52146103c0578063793cf218146103ca5780638da5cb5b146103e85780638f32d59b146104325780638fdbbb4e14610454578063e8685ba114610572576100a9565b806319e6e158146100ae5780631a108ff0146100f057806326541b561461016c57806335b8e8201461024e5780633c59958b14610368575b600080fd5b6100da600480360360208110156100c457600080fd5b8101908080359060200190929190505050610590565b6040518082815260200191505060405180910390f35b61011c6004803603602081101561010657600080fd5b81019080803590602001909291905050506105e5565b604051808473ffffffffffffffffffffffffffffffffffffffff1673ffffffffffffffffffffffffffffffffffffffff168152602001838152602001828152602001935050505060405180910390f35b6102386004803603604081101561018257600080fd5b810190808035906020019064010000000081111561019f57600080fd5b8201836020820111156101b157600080fd5b803590602001918460018302840111640100000000831117156101d357600080fd5b9091929391929390803590602001906401000000008111156101f457600080fd5b82018360208201111561020657600080fd5b8035906020019184600183028401116401000000008311171561022857600080fd5b909192939192939050505061062f565b6040518082815260200191505060405180910390f35b61027a6004803603602081101561026457600080fd5b8101908080359060200190929190505050610801565b604051808481526020018060200180602001838103835285818151815260200191508051906020019080838360005b838110156102c45780820151818401526020810190506102a9565b50505050905090810190601f1680156102f15780820380516001836020036101000a031916815260200191505b50838103825284818151815260200191508051906020019080838360005b8381101561032a57808201518184015260208101905061030f565b50505050905090810190601f1680156103575780820380516001836020036101000a031916815260200191505b509550505050505060405180910390f35b6103be6004803603606081101561037e57600080fd5b81019080803573ffffffffffffffffffffffffffffffffffffffff1690602001909291908035906020019092919080359060200190929190505050610978565b005b6103c8610a9d565b005b6103d2610adf565b6040518082815260200191505060405180910390f35b6103f0610ae9565b604051808273ffffffffffffffffffffffffffffffffffffffff1673ffffffffffffffffffffffffffffffffffffffff16815260200191505060405180910390f35b61043a610b0e565b604051808215151515815260200191505060405180910390f35b6104806004803603602081101561046a57600080fd5b8101908080359060200190929190505050610b65565b60405180806020018060200184151515158152602001838103835286818151815260200191508051906020019080838360005b838110156104ce5780820151818401526020810190506104b3565b50505050905090810190601f1680156104fb5780820380516001836020036101000a031916815260200191505b50838103825285818151815260200191508051906020019080838360005b83811015610534578082015181840152602081019050610519565b50505050905090810190601f1680156105615780820380516001836020036101000a031916815260200191505b509550505050505060405180910390f35b61057a610ccc565b6040518082815260200191505060405180910390f35b6000806000905060008090505b6002548110156105db5783600460008381526020019081526020016000206002015414156105ce5781806001019250505b808060010191505061059d565b5080915050919050565b60046020528060005260406000206000915090508060000160009054906101000a900473ffffffffffffffffffffffffffffffffffffffff16908060010154908060020154905083565b600060016000815480929190600101919050559050604051806060016040528086868080601f016020809104026020016040519081016040528093929190818152602001838380828437600081840152601f19601f82011690508083019250505050505050815260200184848080601f016020809104026020016040519081016040528093929190818152602001838380828437600081840152601f19601f82011690508083019250505050505050815260200160011515815250600360008381526020019081526020016000206000820151816000019080519060200190610719929190610cd6565b506020820151816001019080519060200190610736929190610cd6565b5060408201518160020160006101000a81548160ff0219169083151502179055509050507f0d6e18b4ab2cadd15663cbb3b5dab511a06fce01f3815dd2edeaf51c6ff98c1e81868686866040518086815260200180602001806020018381038352878782818152602001925080828437600081840152601f19601f8201169050808301925050508381038252858582818152602001925080828437600081840152601f19601f82011690508083019250505097505050505050505060405180910390a1949350505050565b6000606080836003600086815260200190815260200160002060000160036000878152602001908152602001600020600101818054600181600116156101000203166002900480601f0160208091040260200160405190810160405280929190818152602001828054600181600116156101000203166002900480156108c85780601f1061089d576101008083540402835291602001916108c8565b820191906000526020600020905b8154815290600101906020018083116108ab57829003601f168201915b50505050509150808054600181600116156101000203166002900480601f0160208091040260200160405190810160405280929190818152602001828054600181600116156101000203166002900480156109645780601f1061093957610100808354040283529160200191610964565b820191906000526020600020905b81548152906001019060200180831161094757829003601f168201915b505050505090509250925092509193909250565b60016003600084815260200190815260200160002060020160006101000a81548160ff021916908315150217905515610a98576002600081548092919060010191905055905060405180606001604052808473ffffffffffffffffffffffffffffffffffffffff168152602001828152602001838152506004600083815260200190815260200160002060008201518160000160006101000a81548173ffffffffffffffffffffffffffffffffffffffff021916908373ffffffffffffffffffffffffffffffffffffffff16021790555060208201518160010155604082015181600201559050507f89b1d6344c948134ebf34cc76a259a80dcf351c264adba174b6ccad8a7ce797d826040518082815260200191505060405180910390a15b505050565b336000806101000a81548173ffffffffffffffffffffffffffffffffffffffff021916908373ffffffffffffffffffffffffffffffffffffffff160217905550565b6000600254905090565b6000809054906101000a900473ffffffffffffffffffffffffffffffffffffffff1681565b60008060009054906101000a900473ffffffffffffffffffffffffffffffffffffffff1673ffffffffffffffffffffffffffffffffffffffff163373ffffffffffffffffffffffffffffffffffffffff1614905090565b6003602052806000526040600020600091509050806000018054600181600116156101000203166002900480601f016020809104026020016040519081016040528092919081815260200182805460018160011615610100020316600290048015610c115780601f10610be657610100808354040283529160200191610c11565b820191906000526020600020905b815481529060010190602001808311610bf457829003601f168201915b505050505090806001018054600181600116156101000203166002900480601f016020809104026020016040519081016040528092919081815260200182805460018160011615610100020316600290048015610caf5780601f10610c8457610100808354040283529160200191610caf565b820191906000526020600020905b815481529060010190602001808311610c9257829003601f168201915b5050505050908060020160009054906101000a900460ff16905083565b6000600154905090565b828054600181600116156101000203166002900490600052602060002090601f016020900481019282601f10610d1757805160ff1916838001178555610d45565b82800160010185558215610d45579182015b82811115610d44578251825591602001919060010190610d29565b5b509050610d529190610d56565b5090565b610d7891905b80821115610d74576000816000905550600101610d5c565b5090565b9056fea265627a7a72315820ba1b5010866e48042b5eb7ae005c710d41b45c438d75dd237badfe96f0ee39f764736f6c63430005100032",
  "source": "// SPDX-License-Identifier: MIT\npragma solidity >=0.4.21 <0.7.0;\n\ncontract Voting {\n\t//This declares the Ethereum Address of the contract owner\n\taddress public owner;\n\n\t//These are state variables to store candidates and voters\n\tuint256 internal numCandidates;\n\tuint256 internal numVoters;\n\n\t//Events will be used to inform the front-end of activity in our contract\n\tevent AddedCandidate(uint256 candidateId, string name, string proposal);\n\tevent NewVote(uint256 candidateId);\n\n\tfunction vote() public {\n\t\towner = msg.sender;\n\t}\n\n\t//This will be applied to the functions that should only be performed by the owner of the contract. As registering candidates.\n\tmodifier onlyOwner() {\n\t\trequire(isOwner(), \"This operation is OnlyOwner\");\n\t\t_;\n\t}\n\n\tfunction isOwner() public view returns (bool) {\n\t\treturn msg.sender == owner;\n\t}\n\n\t//This will create a hash to assign an Id to a candidate and an address to a voter\n\tmapping(uint256 => Candidate) public candidatesStore;\n\tmapping(uint256 => Voter) public votersStore;\n\n\t//This defines the Voters structure.\n\tstruct Voter {\n\t\taddress voterAddress;\n\t\tuint256 voterId;\n\t\tuint256 candidateIdVote;\n\t}\n\n\t//This defines the candidates structure\n\tstruct Candidate {\n\t\tstring name;\n\t\tstring proposal;\n\t\tbool doesExist;\n\t}\n\n\t//Here we add the functionality of our contract.\n\tfunction addCandidate(string calldata name, string calldata proposal)\n\t\texternal\n\t\treturns (uint256 candidateId)\n\t{\n\t\tcandidateId = numCandidates++;\n\t\tcandidatesStore[candidateId] = Candidate(name, proposal, true);\n\t\temit AddedCandidate(candidateId, name, proposal);\n\t}\n\n\tfunction addVote(\n\t\taddress voterAddress,\n\t\tuint256 candidateIdVote,\n\t\tuint256 voterId\n\t) public {\n\t\tif (candidatesStore[candidateIdVote].doesExist = true) {\n\t\t\tvoterId = numVoters++;\n\t\t\tvotersStore[voterId] = Voter(voterAddress, voterId, candidateIdVote);\n\t\t\temit NewVote(candidateIdVote);\n\t\t}\n\t}\n\n\tfunction totalVotes(uint256 candidateId) public view returns (uint256) {\n\t\tuint256 numOfVotes = 0;\n\t\tfor (uint256 i = 0; i < numVoters; i++) {\n\t\t\tif (votersStore[i].candidateIdVote == candidateId) {\n\t\t\t\tnumOfVotes++;\n\t\t\t}\n\t\t}\n\t\treturn numOfVotes;\n\t}\n\n\tfunction getNumOfCandidates() public view returns (uint256) {\n\t\treturn numCandidates;\n\t}\n\n\tfunction getTotalVoters() public view returns (uint256) {\n\t\treturn numVoters;\n\t}\n\n\tfunction getCandidate(uint256 candidateId)\n\t\tpublic\n\t\tview\n\t\treturns (\n\t\t\tuint256,\n\t\t\tstring memory,\n\t\t\tstring memory\n\t\t)\n\t{\n\t\treturn (\n\t\t\tcandidateId,\n\t\t\tcandidatesStore[candidateId].name,\n\t\t\tcandidatesStore[candidateId].proposal\n\t\t);\n\t}\n}",
  "sourcePath": "/Users/3301hakuba/Dropbox/CCX/blockchain-voting/contracts/Voting.sol",
  "compiler": {
    "name": "solc",
    "version": "0.5.16+commit.9c3226ce.Emscripten.clang"
  },
  "schemaVersion": "3.3.2",
  "updatedAt": "2021-01-16T04:58:45.189Z",
  "networkType": "ethereum",
  "devdoc": {
    "methods": {}
  },
  "userdoc": {
    "methods": {}
  }
}